{
  "contractName": "Remittance",
  "abi": [
    {
      "constant": false,
      "inputs": [],
      "name": "kill",
      "outputs": [],
      "payable": false,
      "stateMutability": "nonpayable",
      "type": "function"
    },
    {
      "constant": false,
      "inputs": [
        {
          "name": "_passwordHash",
          "type": "bytes32"
        }
      ],
      "name": "refund",
      "outputs": [
        {
          "name": "",
          "type": "bool"
        }
      ],
      "payable": false,
      "stateMutability": "nonpayable",
      "type": "function"
    },
    {
      "constant": false,
      "inputs": [
        {
          "name": "firstPasswordHash",
          "type": "bytes32"
        },
        {
          "name": "secondPasswordHash",
          "type": "bytes32"
        },
        {
          "name": "_owner",
          "type": "address"
        }
      ],
      "name": "convertAndSend",
      "outputs": [
        {
          "name": "",
          "type": "bool"
        }
      ],
      "payable": false,
      "stateMutability": "nonpayable",
      "type": "function"
    },
    {
      "constant": true,
      "inputs": [],
      "name": "owner",
      "outputs": [
        {
          "name": "",
          "type": "address"
        }
      ],
      "payable": false,
      "stateMutability": "view",
      "type": "function"
    },
    {
      "constant": true,
      "inputs": [
        {
          "name": "",
          "type": "bytes32"
        }
      ],
      "name": "remittances",
      "outputs": [
        {
          "name": "exchange",
          "type": "address"
        },
        {
          "name": "deadlineTimestamp",
          "type": "uint256"
        },
        {
          "name": "amount",
          "type": "uint256"
        }
      ],
      "payable": false,
      "stateMutability": "view",
      "type": "function"
    },
    {
      "constant": false,
      "inputs": [
        {
          "name": "_exchange",
          "type": "address"
        },
        {
          "name": "_passwordHash",
          "type": "bytes32"
        },
        {
          "name": "_deadlineTimestamp",
          "type": "uint256"
        }
      ],
      "name": "createRemittance",
      "outputs": [
        {
          "name": "",
          "type": "bool"
        }
      ],
      "payable": true,
      "stateMutability": "payable",
      "type": "function"
    },
    {
      "payable": true,
      "stateMutability": "payable",
      "type": "fallback"
    },
    {
      "anonymous": false,
      "inputs": [
        {
          "indexed": true,
          "name": "_from",
          "type": "address"
        },
        {
          "indexed": true,
          "name": "_to",
          "type": "address"
        },
        {
          "indexed": false,
          "name": "_amount",
          "type": "uint256"
        },
        {
          "indexed": false,
          "name": "_deadline",
          "type": "uint256"
        }
      ],
      "name": "RemittanceCreated",
      "type": "event"
    },
    {
      "anonymous": false,
      "inputs": [
        {
          "indexed": true,
          "name": "_who",
          "type": "address"
        },
        {
          "indexed": true,
          "name": "_to",
          "type": "address"
        },
        {
          "indexed": false,
          "name": "_amount",
          "type": "uint256"
        }
      ],
      "name": "RemittanceConvertAndSend",
      "type": "event"
    },
    {
      "anonymous": false,
      "inputs": [
        {
          "indexed": true,
          "name": "_who",
          "type": "address"
        },
        {
          "indexed": false,
          "name": "_amount",
          "type": "uint256"
        }
      ],
      "name": "RemittanceRefunded",
      "type": "event"
    },
    {
      "anonymous": false,
      "inputs": [
        {
          "indexed": true,
          "name": "_owner",
          "type": "address"
        }
      ],
      "name": "Killed",
      "type": "event"
    }
  ],
  "bytecode": "0x6060604052336000806101000a81548173ffffffffffffffffffffffffffffffffffffffff021916908373ffffffffffffffffffffffffffffffffffffffff16021790555061093c806100536000396000f300606060405260043610610078576000357c0100000000000000000000000000000000000000000000000000000000900463ffffffff16806341c0e1b51461007d5780637249fbb61461009257806382dd8dbb146100d15780638da5cb5b1461013c5780639c922d2a14610191578063ab11627114610206575b600080fd5b341561008857600080fd5b610090610262565b005b341561009d57600080fd5b6100b760048080356000191690602001909190505061035b565b604051808215151515815260200191505060405180910390f35b34156100dc57600080fd5b6101226004808035600019169060200190919080356000191690602001909190803573ffffffffffffffffffffffffffffffffffffffff169060200190919050506104b0565b604051808215151515815260200191505060405180910390f35b341561014757600080fd5b61014f6106da565b604051808273ffffffffffffffffffffffffffffffffffffffff1673ffffffffffffffffffffffffffffffffffffffff16815260200191505060405180910390f35b341561019c57600080fd5b6101b66004808035600019169060200190919050506106ff565b604051808473ffffffffffffffffffffffffffffffffffffffff1673ffffffffffffffffffffffffffffffffffffffff168152602001838152602001828152602001935050505060405180910390f35b610248600480803573ffffffffffffffffffffffffffffffffffffffff1690602001909190803560001916906020019091908035906020019091905050610749565b604051808215151515815260200191505060405180910390f35b6000809054906101000a900473ffffffffffffffffffffffffffffffffffffffff1673ffffffffffffffffffffffffffffffffffffffff163373ffffffffffffffffffffffffffffffffffffffff161415156102bd57600080fd5b6000809054906101000a900473ffffffffffffffffffffffffffffffffffffffff1673ffffffffffffffffffffffffffffffffffffffff167f4b0bc4f25f8d0b92d2e12b686ba96cd75e4e69325e6cf7b1f3119d14eaf2cbdf60405160405180910390a26000809054906101000a900473ffffffffffffffffffffffffffffffffffffffff1673ffffffffffffffffffffffffffffffffffffffff16ff5b60008060008160010154804211151561037357600080fd5b826002015460008111151561038757600080fd5b6001600087336040518083600019166000191681526020018273ffffffffffffffffffffffffffffffffffffffff1673ffffffffffffffffffffffffffffffffffffffff166c0100000000000000000000000002815260140192505050604051809103902060001916600019168152602001908152602001600020935083600201549250600084600201819055503373ffffffffffffffffffffffffffffffffffffffff166108fc849081150290604051600060405180830381858888f19350505050151561045557600080fd5b3373ffffffffffffffffffffffffffffffffffffffff167fc8d8efc3af2e1c2350b86472f596a082e9eafdc05bb6f8e8d2b24c979e2057cf846040518082815260200191505060405180910390a26001945050505050919050565b60008060008081600101548042111515156104ca57600080fd5b82600201546000811115156104de57600080fd5b88888860405180846000191660001916815260200183600019166000191681526020018273ffffffffffffffffffffffffffffffffffffffff1673ffffffffffffffffffffffffffffffffffffffff166c0100000000000000000000000002815260140193505050506040518091039020945060016000866000191660001916815260200190815260200160002093503373ffffffffffffffffffffffffffffffffffffffff168460000160009054906101000a900473ffffffffffffffffffffffffffffffffffffffff1673ffffffffffffffffffffffffffffffffffffffff161415156105cc57600080fd5b83600201549250600084600201819055508360000160009054906101000a900473ffffffffffffffffffffffffffffffffffffffff1673ffffffffffffffffffffffffffffffffffffffff166108fc849081150290604051600060405180830381858888f19350505050151561064157600080fd5b8360000160009054906101000a900473ffffffffffffffffffffffffffffffffffffffff1673ffffffffffffffffffffffffffffffffffffffff163373ffffffffffffffffffffffffffffffffffffffff167f2e206b9fee69d8ae592e4982f7691a217744cacf8eb88d27feec8cef4504a1ba856040518082815260200191505060405180910390a36001955050505050509392505050565b6000809054906101000a900473ffffffffffffffffffffffffffffffffffffffff1681565b60016020528060005260406000206000915090508060000160009054906101000a900473ffffffffffffffffffffffffffffffffffffffff16908060010154908060020154905083565b6000803460008111151561075c57600080fd5b600073ffffffffffffffffffffffffffffffffffffffff168673ffffffffffffffffffffffffffffffffffffffff161415151561079857600080fd5b6001600086336040518083600019166000191681526020018273ffffffffffffffffffffffffffffffffffffffff1673ffffffffffffffffffffffffffffffffffffffff166c01000000000000000000000000028152601401925050506040518091039020600019166000191681526020019081526020016000209150858260000160006101000a81548173ffffffffffffffffffffffffffffffffffffffff021916908373ffffffffffffffffffffffffffffffffffffffff1602179055503482600201819055508382600101819055508160000160009054906101000a900473ffffffffffffffffffffffffffffffffffffffff1673ffffffffffffffffffffffffffffffffffffffff163373ffffffffffffffffffffffffffffffffffffffff167f08deedf2fc07f5e40cd16f1f5dc1ce8ff65fe5e7e6148c6d9854c113bf88767884600201548560010154604051808381526020018281526020019250505060405180910390a360019250505093925050505600a165627a7a72305820f5a49714cfe5e21072ac70011ec6021dadfe084b3a966caa1706434ff09d25700029",
  "source": "pragma solidity ^0.4.16;\r\n\r\nimport \"./Owned.sol\";\r\n\r\n// Alice wants to send funds to Bob\r\n// Bob wants local currency\r\n// Carol runs an exchange shop\r\n// To successfully withdraw the ether from Alice\r\n// Carol needs to submit two passwords to Alice's Remittance contract\r\n// firstPasswordHash = Alice gave to Carol in an email\r\n// secondPasswordHash = Alice sent to Bob over SMS\r\n// Carol & Bob meet\r\n// Bob gives Carol his password from Alice\r\n// Carol can submit both passwords to Alice's remittance contract\r\n// No one should send their passwords to the blockchain in the clear\r\n// Possibly minus commission - NO COMMISSION\r\n\r\ncontract Remittance is Owned {\r\n\r\n\tstruct RemittanceStruct {\r\n    \taddress exchange; // Carol\r\n    \tuint256 deadlineTimestamp; // When can get back if not sent\r\n    \tuint256 amount; // How much going to send\r\n  \t}\r\n\r\n\tmodifier onlyActive(uint256 amount) {\r\n\t\t require(amount > 0);\r\n\t\t _;\r\n\t}\r\n\r\n\tmodifier afterDeadline(uint256 deadlineTimestamp) {\r\n\t\trequire(block.timestamp > deadlineTimestamp);\r\n\t\t_;\r\n\t}\r\n\r\n\tmodifier beforeDeadline(uint256 deadlineTimestamp) {\r\n\t\trequire(block.timestamp <= deadlineTimestamp);\r\n\t\t_;\r\n\t}\r\n\t\r\n\tmapping(bytes32 => RemittanceStruct) public remittances;\r\n\r\n\tevent RemittanceCreated(address indexed _from, address indexed _to, uint256 _amount, uint256 _deadline);\r\n    event RemittanceConvertAndSend(address indexed _who, address indexed _to, uint256 _amount);\r\n    event RemittanceRefunded(address indexed _who, uint256 _amount);\r\n    event Killed(address indexed _owner);\r\n\t\r\n\t// Alice create remittance\r\n\t// Exchange = Carol\r\n\tfunction createRemittance(address _exchange, bytes32 _passwordHash, uint256 _deadlineTimestamp) payable onlyActive(msg.value) public returns (bool) {\r\n\t\trequire(_exchange != address(0));\r\n\r\n\t\tRemittanceStruct storage remittance = remittances[keccak256(_passwordHash, msg.sender)];\r\n\t\tremittance.exchange = _exchange; // Carols - exchange\r\n    \tremittance.amount = msg.value; // Ethers she want to send\r\n    \tremittance.deadlineTimestamp = _deadlineTimestamp; // After this time Alice can get her ethers back\r\n\r\n\t\tRemittanceCreated(msg.sender, remittance.exchange, remittance.amount, remittance.deadlineTimestamp);\r\n\t\treturn true;\r\n\t}\r\n\r\n\t// Carol Withdraw Alices Ethers \r\n\t// Before Deadline\r\n\tfunction convertAndSend(bytes32 firstPasswordHash, bytes32 secondPasswordHash, address _owner) public beforeDeadline(remittance.deadlineTimestamp) onlyActive(remittance.amount) returns (bool) {\r\n\t\tbytes32 password = keccak256(firstPasswordHash, secondPasswordHash, _owner);\r\n\t\tRemittanceStruct storage remittance = remittances[password];\r\n\r\n\t\trequire(remittance.exchange == msg.sender);\r\n\r\n\t\tuint256 amount = remittance.amount;\r\n\t\tremittance.amount = 0;\r\n\r\n\t\tremittance.exchange.transfer(amount);\r\n\r\n\t\tRemittanceConvertAndSend(msg.sender, remittance.exchange, amount);\r\n\t\treturn true;\r\n\t}\r\n\t\r\n\t// Alice get her ethers back \r\n\t// After Deadline\r\n\tfunction refund(bytes32 _passwordHash) public afterDeadline(remittance.deadlineTimestamp) onlyActive(remittance.amount) returns (bool) {\r\n\t\tRemittanceStruct storage remittance = remittances[keccak256(_passwordHash, msg.sender)];\r\n\r\n\t\tuint256 amountToGetBack = remittance.amount;\r\n\t\tremittance.amount = 0;\r\n\t\tmsg.sender.transfer(amountToGetBack);\r\n\r\n\t\tRemittanceRefunded(msg.sender, amountToGetBack);\r\n\t\treturn true;\r\n\t}\r\n\r\n\tfunction() payable public {\r\n\t\trevert();\r\n\t}\r\n\r\n\tfunction kill() public onlyOwner {\r\n      \tKilled(owner);\r\n      \tselfdestruct(owner);\r\n    }\r\n}",
  "sourcePath": "C:\\Users\\sevgi\\Desktop\\Remittance\\contracts\\Remittance.sol",
  "compiler": {
    "name": "solc",
    "version": "0.4.18+commit.9cf6e910.Emscripten.clang"
  },
  "schemaVersion": "1.0.1",
  "updatedAt": "2018-01-16T20:53:41.126Z"
}